:0200000460009A
:100000004643464200000156000000000101020084
:1000100000000000000000000000000000000000E0
:1000200000000000000000000000000000000000D0
:1000300000000000000000000000000000000000C0
:1000400000000000010403000000000000000000A8
:100050000000200000000000000000000000000080
:100060000000000000000000000000000000000090
:100070000000000000000000000000000000000080
:10008000EB04180A063204260000000000000000FD
:10009000050404240000000000000000000000002F
:1000A0000000000000000000000000000000000050
:1000B0000604000000000000000000000000000036
:1000C0000000000000000000000000000000000030
:1000D00020041808000000000000000000000000DC
:1000E0000000000000000000000000000000000010
:1000F0000000000000000000000000000000000000
:1001000000000000000000000000000000000000EF
:100110000204180804200000000000000000000095
:1001200000000000000000000000000000000000CF
:10013000600400000000000000000000000000005B
:1001400000000000000000000000000000000000AF
:10015000000000000000000000000000000000009F
:10016000000000000000000000000000000000008F
:10017000000000000000000000000000000000007F
:10018000000000000000000000000000000000006F
:10019000000000000000000000000000000000005F
:1001A000000000000000000000000000000000004F
:1001B000000000000000000000000000000000003F
:1001C000000100000010000001000000000000001D
:1001D000000000000000000000000000000000001F
:1001E000000000000000000000000000000000000F
:1001F00000000000000000000000000000000000FF
:10020000D4D4D4D4D4D4D4D4D4D4D4D4D4D4D4D4AE
:10100000D10020400020006000000000000000002F
:1010100020100060001000600000000000000000D0
:1010200000000060249A000000000000EFBEADDE6A
:10103000124880F3088812481249016000F036F81F
:10104000114812490022814201D004C0FBE7104838
:101050001049114A814202D008CA08C0FAE70F4875
:101060004FF47001026842EA01020260BFF34F8F41
:10107000BFF36F8F00F014F800DE00000040002086
:1010800008ED00E0004000200050002050800020CB
:10109000B842002040440020309A006088ED00E013
:1010A00040F6E96CC0F2000C6047D4D41C4840F212
:1010B000924188420CBF1B4A1B4A1C4B5360136869
:1010C00023F0800313601A481A4901BF1A480A0C1A
:1010D0008264C1F30F014164016C41F004010164B9
:1010E0001648174A824205D01649814202D008CAE2
:1010F00008C0FAE71448154A824205D014498142D3
:1011000002D008CA08C0FAE71248134A824205D042
:101110001249814202D008CA08C0FAE770470000AD
:10112000240400000080034000C00B4020C528D9E3
:1011300000C00A40AAAAFAFF00400E4000000000CA
:10114000B82200602C6700000040002000200060F2
:10115000B842002000002020F089006040102020CC
:10116000D4D4D4D4D4D4D4D4D4D4D4D4D4D4D4D43F
:10117000D4D4D4D4D4D4D4D4D4D4D4D4D4D4D4D42F
:10118000D4D4D4D4D4D4D4D4D4D4D4D4D4D4D4D41F
:10119000D4D4D4D4D4D4D4D4D4D4D4D4D4D4D4D40F
:102000000040002031100060F92B00001367000031
:10201000F92B0000F92B0000F92B00000000000054
:10202000000000000000000000000000F92B00008C
:10203000F92B000000000000F92B0000F92B000034
:10204000F92B0000F92B0000F92B0000F92B000000
:10205000F92B0000F92B0000F92B0000F92B0000F0
:10206000F92B0000F92B0000F92B0000F92B0000E0
:10207000F92B0000F92B0000F92B0000F92B0000D0
:10208000F92B00000000000000000000000000002C
:10209000F92B0000F92B0000F92B0000F92B0000B0
:1020A000F92B0000F92B0000F92B0000F92B0000A0
:1020B000F92B0000F92B0000F92B0000F92B000090
:1020C000F92B0000F92B0000F92B0000F92B000080
:1020D000F92B0000F92B0000F92B0000F92B000070
:1020E000F92B0000F92B0000F92B0000F92B000060
:1020F000F92B0000F92B0000F92B0000F92B000050
:10210000F92B0000F92B0000F92B0000F92B00003F
:1021100000000000F92B000000000000F92B000077
:10212000F92B0000F92B0000F92B0000F92B00001F
:10213000F92B0000F92B000000000000F92B000033
:10214000F92B0000F92B0000F92B0000F92B0000FF
:10215000F92B0000F92B0000000000000000000037
:10216000F92B0000F92B0000F92B0000F92B0000DF
:10217000F92B0000F92B0000F92B0000F92B0000CF
:10218000F92B0000F92B0000F92B0000F92B0000BF
:10219000F92B0000F92B0000F92B0000F92B0000AF
:1021A000F92B0000F92B0000F92B0000F92B00009F
:1021B000F92B0000F92B0000F92B0000F92B00008F
:1021C000F92B0000F92B0000F92B000000000000A3
:1021D000F92B0000F92B0000F92B0000F92B00006F
:1021E000F92B0000F92B0000F92B0000F92B00005F
:1021F000F92B0000F92B0000F92B0000F92B00004F
:10220000F92B0000E10A0000F92B0000F92B000077
:10221000F92B0000F92B0000F92B0000F92B00002E
:10222000F92B0000F92B0000D1080000F92B000069
:10223000F92B0000F92B0000F92B00000000000032
:1022400000000000F92B0000F92B0000F92B000022
:10225000F92B0000F92B0000F92B0000F92B0000EE
:10226000F92B0000F92B0000F92B0000F92B0000DE
:10227000F92B0000F92B0000F92B0000F92B0000CE
:10228000F92B0000F92B0000F92B0000F92B0000BE
:10229000F92B0000F92B0000F92B0000F92B0000AE
:1022A000F92B0000F92B0000F92B000000000000C2
:0822B000F92B0000F92B0000DE
:1022B800F0B503AF2DE9000FABB08A46044601F133
:1022C800340038310AF1540202F0AFFBDAF8280181
:1022D800016841F001010160DAF82811086820F06E
:1022E800020008600020C1F80801C1F81801C1F80F
:1022F80028011491C1F83801DAF8C0B0DBF8000001
:1023080020F00100CBF80000DBF8000040F40040AA
:10231800CBF80000DBF8000000040CD5DBF8000067
:10232800000444BFDBF800005FEA004003D5DBF897
:1023380000000004EED43F20CBF80800DBF80000D2
:1023480020F00100CBF80000DAF8C450286820F02B
:1023580001002860286840F40040286028680004CC
:1023680009D52868000444BF28685FEA004002D500
:1023780028680004F2D43F2040F26341A86028682E
:1023880020F001002860DAF80060DAF85C011390A8
:10239800B06C40F00100B064706C08437064706CFD
:1023A800012161F383007064706C20F08000706418
:1023B800B06C40F02000B064706C40F44040706431
:1023C800706C40F444707064B06C40F08000B0648D
:1023D800B06D000709D0B06D00071CBFB06D5FEA93
:1023E800007002D0B06D0007F2D1B06C40F26341CA
:1023F80040F02000B064706C20F440407064706C51
:1024080020F4447000F588707064DAF80480D8F815
:10241800480040F00100C8F84800D8F844000843D4
:10242800C8F84400D8F84400012161F38300C8F8D3
:102438004400D8F8440020F08000C8F84400D8F8D8
:10244800480040F02000C8F84800D8F8440040F49C
:102458004040C8F84400D8F8440040F44470C8F834
:102468004400D8F8480040F08000C8F84800D8F880
:10247800580000070CD0D8F8580000071CBFD8F83F
:1024880058005FEA007003D0D8F858000007EED172
:10249800D8F8480002220F2340F02000C8F848006E
:1024A800D8F8440020F44040C8F84400D8F8440064
:1024B80020F4447000F58870C8F84400DAF87C11FC
:1024C80015A802F05DFDDAF8681127A84FF48052CC
:1024D80002F018FDDAF89C001290DAF8A4001190C6
:1024E800DAF8A8000D90DAF8AC000C90DAF884015C
:1024F8000B90DAF890010A90DAF89801DAE91712E5
:10250800069004F5907002F0F6FDDAF83091DAF8EA
:1025180088E009F59070606709F1C0002067DAE982
:102528000D0109F16003DAF81421CDE90F100F212C
:10253800DAF854000E90DAF880000990DAF884008E
:102548000190DAF8E0000590DAF8E8000490DAF88B
:10255800FC000390DAE940C00890DAF80801079017
:10256800DAF80C010090DAF81C0102904FF4704080
:10257800A9F88C01C4E91999A9F88E114FF00F092F
:10258800E366DAF8343103F59071C4F8881003F182
:10259800C001C4F88410A3F88C0103F16001C4E9F8
:1025A8001E33A3F88E91C4F88010DAF8381101F5BB
:1025B8009073C4F89C3001F1C003C4F89830A1F8B6
:1025C8008C01C4E92311A1F88E916031C4F89410EC
:1025D800DAF83C1101F59073C4F8B03001F1C0038A
:1025E800C4F8AC30A1F88C0101F16000C4F8A8006F
:1025F800C4E92811A1F88E911399C4E904B501F131
:1026080034005031C4E93068C4E9C81015A90698E7
:1026180020630A98E0620B98A0620C9860620D989B
:1026280020621498C4F8BCE0C4F860C0C4E9000093
:10263800C4E902001298A0611198E0610198C4F8F9
:10264800B8000998C4F8B400059820640498606438
:102658000398C4E91202482200982065089860652A
:102668000798A0650298E0650E98E0630F98A0634C
:102678001098606304F1C80006F09FF927AB04F5D1
:10268800887C0FCB8CE80F002BB0BDE8000FF0BDA5
:102698007047007840F290020B4640F24831C2F28F
:1026A8002001C2F2200251F8201052F820201846CA
:1026B80005F095BCF0B503AF2DE9000F87B00546CE
:1026C8000868002840F08A80002091F804B008606B
:1026D8000C4688680BF101012171002877D14FF071
:1026E800FF3004F10C06A060402003219046CDE99C
:1026F80000103046D7F808A0002100229946CDF8EE
:1027080008A004F0FBF8A268C00702F10103A36067
:102718006BD1002BCDF81480CDE9031957D152465F
:102728004FF0FF30A0604FF040094FF0030A904689
:102738000292304680210022CDE900A904F0DEF89B
:10274800C00701BF85F8ADB085F818A085F81780D7
:10275800A97501BFA5F8149004F144002861DDE9CA
:10276800042101BFC5E9291285F80CA085F80B8062
:10277800039901BFA972A5F80890022185F8AC1049
:1027880001BFA168002285F8A120C5E9002001BF8A
:10279800481CA06007B0BDE8000F08BFF0BDA068E6
:1027A80040F2E01307F81D1CC2F220030130A060BC
:1027B80040F25020A7F11D02C2F22000009040F222
:1027C800CE10C2F220000F2105F028F9FEDE40F2FB
:1027D800A040C2F2200005F081F8FEDE40F2E040A1
:1027E800C2F2200005F07AF8FEDE40F2502040F2F6
:1027F800E013C2F22000A7F11E02009040F2CE10B2
:10280800C2F22000C2F2200307F81E1C0F2105F0B7
:1028180005F9FEDED0B502AF0C4690F8AD1053882E
:102828008B4207D1537A9179012B04D0002B08BF32
:1028380006292CD0D0BD012918BF022944D12088EF
:1028480000F00D000428F5D1E06809212180006816
:10285800BFF35F8F78B1A17C012204F08EFAA069E2
:102868000068BFF35F8F00281FBFA17F0122BDE86A
:10287800D04004F082BA40F2F04040F27452C2F202
:102888002000C2F22002222105F091F8FEDE5178E4
:10289800212933D0222904BF21880429CAD1012142
:1028A800D0E92902E3884FF0000C218004F1A4014B
:1028B8009A4238BF134681E80510C4F8B030204664
:1028C800BDE8D04000F0D8BF0329B3D190F8AC00E0
:1028D8000228B4D02188042918BFD0BDE18801227C
:1028E80084F8240000202280002918BF0121C4E9AF
:1028F8002B012046BDE8D04000F0BEBF2188042946
:1029080098D142F20121C278A4F8291042F20911A3
:10291800C0F21011D0F8A80061620021C4F8AC1010
:102928000123E18884F82B00000A2380092984F810
:10293800282028BF0921C4F8B01084F82C002046AC
:10294800BDE8D04000F098BFF0B503AF2DE900070F
:10295800A4B00546107A012815D10C4695F8AD00AB
:10296800518881420FD19079092810D00A2850D077
:102978000B2803D195F8AC00022842D1208800F03A
:102988000D00042820D024B0BDE80007F0BD16884B
:1029980040F20410B2F804906FF007014FF0040AF7
:1029A800B6F5806FC0F2023001EA561138BF20FA3E
:1029B80001FAB9F1800F3ED90021208885F8A110CD
:1029C80000F00D000428DED1E068092121800068AC
:1029D800BFF35F8F002866D0A17C012204F0CDF9F7
:1029E800A0690068BFF35F8F00281FBFA17F012285
:1029F80024B0BDE800071CBFBDE8F04004F0BDB935
:102A080051E0A87828B91078002818BF012085F867
:102A1800AC0020880628B6D1A0690168BFF35F8F93
:102A2800002940D040F224630020A27FC2F2200394
:102A3800009002A82FE002A8802105F0C0FFD4F87A
:102A4800B01081293BD2494542D30DF1080804F161
:102A580024014A46F6B2404605F0AFFF05F11C00D6
:102A68004146802205F0A9FF208885F8A1A0062804
:102A780085F8A060C5F89C907FF485AFA0690168CF
:102A8800BFF35F8F79B1A27F002040F224630090EA
:102A980022A8C2F2200304F014F80820208024B0F1
:102AA800BDE80007F0BD40F2F04040F27452C2F2B7
:102AB8002000C2F22002222104F079FFFEDE40F25B
:102AC80028320846C2F22002802105F0ACFAFEDE68
:102AD80040F238324846C2F2200205F0A4FAFEDE7F
:102AE800B0B502AF84B005460C460378032295F8CA
:102AF800AD1040780090204604F0E4FBC1B20829EC
:102B080029D1D5F8A81042F2012027F80C0C4FF46F
:102B18008872E878072327F80F2CA7F10F0207F827
:102B28000D0C080A07F80A1C212107F8090C204691
:102B380004F068FAC1B208290DD1287B042806D010
:102B4800291D204600F012FAC1B2082903D1287EB7
:102B5800042802D1082004B0B0BD05F110012046B8
:102B680000F004FA04B0B0BD002070477047082098
:102B780070477047704780B56F4604F00EFEFCE75B
:102B880080B56F4641F28820C2F220000068D0F874
:102B98002C11C90740F08480002200EE102A41F26F
:102BA8004001C2F22001B8EE400A8868BCEEC00AB3
:102BB80010EE102A10444AF20042CDF2936290427D
:102BC800886013D3D1E9003245F6004CC2F66C1C7C
:102BD8006044013342F1000C03EA0C02B2F1FF3207
:102BE8000CBF13466246C1E90032886045F2000115
:102BF8004DF29003C2F20001C0F203030A68821A80
:102C08009A4240F2B08041F2500341F25102C2F2BE
:102C18002003C2F2200293F800C041F25203C2F22C
:102C2800200312781B78BCF1000F086041F2D8002D
:102C3800C2F220006DD0D0E900E1012001F01F01AF
:102C4800BCF1010F00FA01F00CBFCEF88400CEF8F9
:102C58008C0041F2E000002BC2F2200067D0D0E9DE
:102C680000E1012001F01F01012B00FA01F00CBF67
:102C7800CEF88400CEF88C0041F2E800002AC2F2B7
:102C8800200062D0D0E900E1012001F01F01012AF3
:102C980000FA01F00CBFCEF88400CEF88C005CE09E
:102CA8000121D0F82821D20714BFD0F8242100220E
:102CB800C0F82C11D0F82C31DB073FF46EAFD0F8F8
:102CC8002821D20714BFD0F824210022C0F82C11E3
:102CD800D0F82C31DB073FF460AFD0F82821D207B9
:102CE80014BFD0F824210022C0F82C11D0F82C31C0
:102CF800DB073FF452AFD0F82821D20714BFD0F831
:102D080024210022C0F82C11D0F82C31DB07C8D1BF
:102D180043E7D0E900E1012001F01F018840CEF827
:102D2800880041F2E000002BC2F2200097D1D0E9E0
:102D380000E1012001F01F018840CEF8880041F22F
:102D4800E800002AC2F220009CD1D0E900E101206D
:102D580001F01F018840CEF8880041F25300C2F20A
:102D68002000017821B10020BDE8804004F017BDA3
:102D780041F201310271C37080F802C020F8051BCE
:102D88003C2105F018FE0020BDE8804004F007BD96
:102D9800F0B503AF2DE9000FB5B040F2683041F24D
:102DA800A01B41F2500A41F2F008C2F22000C2F220
:102DB800200B23A9C2F2200A2490C2F22008584608
:102DC80001229AF80090CDF88C8001F069FA9BF8FE
:102DD800E200022824D1DBF8DC00B9F1000F22D090
:102DE80023AD00212391294600F073F9002800F053
:102DF800A88041F240004021C2F22000866803A862
:102E080005F0DDFD98F80C0041F29404C2F22004AC
:102E180004280DD14FF001092078029620BB43E029
:102E28004FF000098DE003F039FD4FF0010988E00B
:102E3800D8F804000168BFF35F8F002900F08A808A
:102E4800402098F80A20009023A803AB03F0E7FE7F
:102E58009DF88C004FF00109002804BF24984028F1
:102E68000AD020780296F8B1611C13A8402205F018
:102E78000AFC002020701BE0207838B90121204688
:102E880000F8011B03A9402205F0FDFB41F28C204C
:102E980003A9C2F22000324601F004FC4FF00409F5
:102EA800207802960028DFD113A8402105F087FD7D
:102EB8000DF14C0C2946BCE87C007CC1BCE87C00C8
:102EC8007CC19CE87D007DC10021DBF8DC003391EA
:102ED80033A900F0B9F800EE100A0299B8EE400ADA
:102EE800BCEEC00A10EE100A421841F28C2023A949
:102EF800C2F2200001F0DEFB98F801000138022838
:102F08000DD298F8AC00022809D098F800100028D3
:102F180018BF0120B1FA81F14909484011D198F848
:102F2800180004280DD0D8F810000168BFF35F8F8F
:102F380081B1402098F81620009033A823AB03F005
:102F4800C0FD00208AF8009004F029FC35B0BDE8E7
:102F5800000FF0BD40F2F04040F27452C2F220007F
:102F6800C2F22002222104F022FDFEDEF0B503AFFA
:102F78004DF8048D8C46816881B3C36841698B42E2
:102F880049D20269D0F818E0D45C0134D4540EF167
:102F980002038B421ED80EF58074A14238BF0C463E
:102FA8009C4248D3E41A052C14D39CF80640BCF87C
:102FB8000450D45413440EF107049CF808608C4262
:102FC8009CF807805E704FEA15269D7083F8048090
:102FD800DE7007D902205DF8048BF0BD07205DF88C
:102FE800048BF0BD8E451ED2072302F80E300EF179
:102FF80001038B423FBF0521D154846108203CBFA7
:103008005DF8048BF0BD40F22042C2F2200218465F
:1030180004F0E4FCFEDE40F23042C2F22002184620
:1030280004F0DCFCFEDE40F210427046C2F22002E0
:1030380004F0D4FCFEDE40F200421846C2F2200240
:10304800214605F010F8FEDEF0B503AF4DF804BDDB
:1030580082B0044690F83400A8B1206890BB4FF0C5
:10306800FF300968206004F1200001906846009153
:1030780002F03BF90546206801302060284602B07E
:103088005DF804BBF0BD0D6804F084FB064604F04F
:1030980077FB2068B0B94FF0FF300095206004F14D
:1030A80020000190684602F020F9054620680130AA
:1030B8002060F00708BF04F065FB284602B05DF801
:1030C80004BBF0BD40F2E450C2F2200004F006FC5C
:1030D800FEDEF0B503AF4DF8048D82B0044690F8DB
:1030E800340020B3206800284FD14FF0FF3022462B
:1030F80042F8200B6E4609683046CDE9001202F00E
:10310800FDF80546304602F0F9F840B16E46304603
:1031180002F004F9304602F0F1F80028F7D12068EF
:1031280001302060284602B05DF8048BF0BD0D68C0
:1031380004F030FB804604F023FB206828BB4FF0E6
:10314800FF30214641F8200B6E463046CDE900514C
:1031580002F0D4F80546304602F0D0F840B16E4689
:10316800304602F0DBF8304602F0C8F80028F7D104
:103178002068013020605FEAC87008BF04F002FBD5
:10318800284602B05DF8048BF0BD40F2E450C2F26C
:10319800200004F0A3FBFEDE80B56F4604F0F0FAD1
:1031A80048F24D000121C2F200004EF20C120170EB
:1031B8004EF27140CEF20000F021CEF200024FF044
:1031C80080634172136001704FF40030106000F0AA
:1031D80003F8FFF7D0FCFEDEF0B503AF2DE9000FD2
:1031E800ADF25C5DDDAC204601F075FA0DF14C09DD
:1031F80021464846FFF75CF848F22400DDF854A061
:10320800C4F21F00DDF86880DDE91CBC0523DDF889
:103218007CE0D0F8242163F30302C0F82421D8F815
:10322800042042F00802C8F80420026863F303028D
:103238000260DBF8042042F01002CBF80420426858
:1032480063F303024260DBF8040046F20002C2F2B4
:10325800000202F59A5340F02000CBF80400DAF897
:10326800280140F00200CAF828014FF4F970CAF8A2
:103278002001DAF8280140F00100CAF82801BFF35C
:103288005F8F53E8006F46F0004043E80005002DCB
:10329800F7D1B6F1FF3FBFF35F8F40F35E8145F290
:1032A80004050120C2F2000505F58066BFF35F8FB3
:1032B800D6E84F4FC6E8410F0029F9D1CDF808806C
:1032C800002CBFF35F8F40F0548102F5905110201D
:1032D8004FF000081890CDE9160102F580511392BD
:1032E800CDE9140148460121CDE91C56CDE91ACE95
:1032F800ADF87880199302F035F849460DF10C09BC
:103308007DC909F1040CACE87D0091E87D0001213C
:103318008CE87D0048468DF84080CDF80C8003F09D
:103328005DF99DF8400048B30398002840F02D81CE
:103338004FF0FF3013AC03900020139009F12000E8
:103348001490204601F099FF204601F0E7FF20463F
:10335800012101F0EFFF2046012101F0A6FF2046E0
:103368004FF47A7101F0AFFF204601F092FF20463A
:1033780001F077FF03980130039031E004F00AFA76
:10338800044604F0FDF90398002840F0FE804FF051
:10339800FF3013AD03900020139009F12000149022
:1033A800284601F06AFF284601F0B8FF28460121A7
:1033B80001F0C0FF2846012101F077FF28464FF4AD
:1033C8007A7101F080FF284601F063FF284601F07A
:1033D80048FF039801300390E00708BF04F0D2F9D2
:1033E800B9E84E0048F20004C2F2000404F11000EB
:1033F8004EC0B9E86E006EC099E86E006EC04FF41A
:10340800806000252081012020600420A564DDAEB5
:10341800E56040F2F45244F8045FC2F220020090E2
:1034280006F1E80021461323FFF744F93220A7F1FB
:10343800440247F8220C0220C4F20000214647F853
:10344800260C102027F8280C41F23130C0F2010078
:1034580047F8345C47F82C0C1D2047F8380C40F22C
:103468000760C2F2200047F8445C47F83C0C30463D
:1034780001F039F80DF14C09314609F102044FF415
:10348800CC72204605F0FFF841F28C2041F2530837
:10349800C2F22000C2F22008C0E90055DDA9C0E947
:1034A800025508F10100402205F0EDF841F29406BA
:1034B80003A9C2F22006701C402205F0E4F841F28C
:1034C800F00009F1EA01C2F22000B02205F0DBF8B1
:1034D80041F2A0102146C2F22000E82205F0D3F8FC
:1034E80041F240000121C2F22000029AC0E90055D1
:1034F800856041F25000C2F2200088F80050057043
:1035080041F25100C2F220003570057041F25200BC
:10351800C2F22000017041F2D800C2F2200003215B
:10352800C0E9002141F2E000C2F220000421C0E914
:1035380000B141F2E800C2F220000521C0E900B163
:1035480041F28820C2F22000C0F800A004F01AF965
:103558000DF25C5DBDE8000FF0BD40F2000040F2E6
:103568008002C2F22000C2F220021F2104F0ECF90E
:10357800FEDE40F2D00040F23012C2F22000C2F269
:103588002002202104F0E0F9FEDE40F2E450C2F20D
:10359800200004F0A3F9FEDED0B502AF84B00446E3
:1035A8000088062812D1A0690168BFF35F8F81B136
:1035B8000020A27F40F22463009002A8C2F22003F8
:1035C80003F07FFA0820208004B0D0BD072004B0A3
:1035D800D0BD40F2F04040F27452C2F22000C2F274
:1035E8002002222104F0E3F9FEDEF0B503AF4DF826
:1035F80004BD86B0044608880D46411E032928D319
:10360800052826D0072836D1D5F8AC00D5F80630DD
:1036180069898128D5F80220ADF80C10CDE901237D
:1036280073D2E9680968BFF35F8F002961D0C0F1E0
:103638008003AA7C2844009300F1240304A803F023
:10364800EEFA9DF8100000283ED09DF8110008BB46
:1036580034E0E8680168BFF35F8F002949D0AA7C8D
:1036680040F2246304A80026C2F22003009603F067
:10367800D6FA2E8022E0E8680168BFF35F8FC1B3F5
:103688000020AA7C40F22463009004A8C2F2200320
:1036980003F0C5FAE868092129800068BFF35F8F45
:1036A80038B3A97C012203F068FBA8690068BFF35E
:1036B8005F8FF0B1A97F012203F05FFB04206072E5
:1036C80006B05DF804BBF0BD0598D5E92B12084497
:1036D800C5F8AC009042F1D3DDE901010623BDF83D
:1036E8000C202B8020606160228106B05DF804BB4D
:1036F800F0BD40F2F04040F27452C2F22000C2F233
:103708002002222104F053F9FEDE40F28C6280216F
:10371800C2F2200204F067FCFEDEF0B503AF2DE92B
:10372800000F85B00446C8680D460168BFF35F8F77
:10373800002900F08B8005F124068020AA7C0090E7
:1037480002A8334603F06BFA9DF8080018B19DF8FB
:10375800090060B921E0039A812A80F0838002A8D9
:10376800314603F031FC9DF8110004281BD1E868AC
:10377800092129800068BFF35F8F002866D0A97CE3
:10378800012203F0FAFAA8690068BFF35F8F0028E6
:103798005CD0A97F012203F0F0FA0420607205B022
:1037A800BDE8000FF0BDE868BDF810A09DF80F60F7
:1037B8009DF80E90BDF80CB0DDF808800068BFF3E6
:1037C8005F8F002842D0A97C002203F0D6FABEB150
:1037D8000420A5F80AA06E7285F80890A5F806B02E
:1037E800C5F802802880A4F808A0E67184F806903D
:1037F800A4F804B0C4F8008005B0BDE8000FF0BD1F
:10380800BBF1000F11D0BBF1800FB0D80020A5F894
:103818000AA0C5E92B0B6872072085F80890A5F85F
:1038280006B0C5F802802880B7E70620A4F808A0EB
:1038380028800020C5F8B000E07184F80690A080C8
:10384800C4F8008005B0BDE8000FF0BD40F2F040BC
:1038580040F27452C2F22000C2F22002222104F087
:10386800A6F8FEDE40F29C631046C2F220038021D7
:103878001A4604F0D8FBFEDEB0B502AF84B00446A9
:10388800D0E92951D0F8AC00D4F8B0C0002DA38BF2
:10389800AE46ACEB000208BF04F1240E9A4238BFD2
:1038A8001346002D03EB000C08BF80219C4525D34F
:1038B8008C452BD8A1690968BFF35F8F71B3A27FCC
:1038C80000930EEB000302A803F0FBF89DF8080034
:1038D80008B104B0B0BD0398D4E92B120144C4F870
:1038E800AC109142F5D30021A28BC4F8A410032197
:1038F800904208BF0221218004B0B0BD40F2AC6202
:103908006146C2F2200204F0AEFBFEDE40F2AC6279
:103918006046C2F2200204F086FBFEDE40F2F04070
:1039280040F27452C2F22000C2F22002222104F0B6
:103938003EF8FEDEB0B502AF84B004460088013818
:10394800072834D8DFE800F0040B24333333334B33
:103958002046FFF791FF0025284604B0B0BDA069B6
:103968000168BFF35F8F00293FD0A27F40F2246334
:1039780002A80025C2F22003009503F0A2F89DF8E2
:103988000800002804BF03202080284604B0B0BDEA
:10399800E0680068BFF35F8F38B3A17C0022002580
:1039A80003F0EBF905202080284604B0B0BDE0689C
:1039B800092121800068BFF35F8FB0B1A17C01228B
:1039C80003F0DBF9A0690068BFF35F8F68B1A17FDE
:1039D800012203F0D2F90025284604B0B0BD00202A
:1039E80001252080284604B0B0BD40F2F04040F2E6
:1039F8007452C2F22000C2F22002222103F0D7FF43
:103A0800FEDED0B502AF0446008800F00D000428A1
:103A180015D1E068092121800068BFF35F8F80B16C
:103A2800A17C012203F0A9F9A0690068BFF35F8FA8
:103A380038B1A17F012203F0A0F90820D0BD0720EA
:103A4800D0BD40F2F04040F27452C2F22000C2F2FF
:103A58002002222103F0ABFFFEDEF0B503AF2DE913
:103A6800000B8CB081460088042827D100200D4621
:103A7800079080218DF82000164603900190099048
:103A880001A80B9009A8069109F12401B9F806804C
:103A9800059103F062FDC1B208290BD1F40009AE0B
:103AA8008CB1F5E802010A6931469047083CC1B279
:103AB8000829F5D00CB0BDE8000BF0BD07200CB00C
:103AC800BDE8000BF0BD09A803F01FFE0798802889
:103AD8001DD9D9F80C000921A9F800100068BFF316
:103AE8005F8F28B399F81210012203F046F9D9F82C
:103AF80018000068BFF35F8FD0B199F81E1001223B
:103B080003F03BF902200CB0BDE8000BF0BD4045C6
:103B180038BF804601200021A9F800004846C9E9BD
:103B28002B18FFF7A9FE08200CB0BDE8000BF0BD6C
:103B380040F2F04040F27452C2F22000C2F2200279
:103B4800222103F034FFFEDEB0B502AF88B0044690
:103B5800008804282CD109680020802206908DF85E
:103B68001C00029000906846059204F12402E58842
:103B7800049203F094FAC1B2082917D10698802854
:103B880019D9E068092121800068BFF35F8F00B36D
:103B9800A17C012203F0F1F8A0690068BFF35F8FF0
:103BA800B8B1A17F012203F0E8F8022008B0B0BD47
:103BB800072008B0B0BDA84238BF05460120002143
:103BC80020802046C4E92B15FFF756FE082008B0D0
:103BD800B0BD40F2F04040F27452C2F22000C2F28E
:103BE8002002222103F0E3FEFEDEF0B503AF2DE94B
:103BF800000788B004460088042848D1D1E90006A7
:103C080080228D680021059204F124020691049215
:103C18008DF81C100291009101686846B4F806807E
:103C280003F0D7FAC1B208292DD18DB106EBC5052D
:103C3800E9464FF0000AD6E90001CA6849469047AC
:103C4800C1B208291FD10836CDF808A0AE42F2D17A
:103C5800684603F026FB069880281DD9E0680921EC
:103C680021800068BFF35F8F30B3A17C012203F08D
:103C780084F8A0690068BFF35F8FE8B1A17F0122D3
:103C880003F07BF8022008B0BDE80007F0BD07206C
:103C980008B0BDE80007F0BD404538BF80460120A8
:103CA800002120802046C4E92B18FFF7E5FD0820F5
:103CB80008B0BDE80007F0BD40F2F04040F2745291
:103CC800C2F22000C2F22002222103F070FEFEDEC2
:103CD800B0B502AF88B00446008804282DD1D1E9D8
:103CE80000120020802306908DF81C00029000909E
:103CF8006846059304F12403E588049303F06CFBFC
:103D0800C1B2082917D10698802819D9E068092175
:103D180021800068BFF35F8F00B3A17C012203F00C
:103D28002CF8A0690068BFF35F8FB8B1A17F0122AA
:103D380003F023F8022008B0B0BD072008B0B0BDDA
:103D4800A84238BF05460120002120802046C4E94A
:103D58002B15FFF791FD082008B0B0BD40F2F040E8
:103D680040F27452C2F22000C2F22002222103F073
:103D78001EFEFEDEF0B503AF4DF804BD0446008814
:103D8800042806D14D68802D07D902205DF804BBB0
:103D9800F0BD07205DF804BBF0BD096804F12400FC
:103DA8002A46E68804F06FFC0020B54238BF2E464C
:103DB800C4E92B06012020802046FFF75DFD08207E
:103DC8005DF804BBF0BDB0B502AF8AB00446008808
:103DD800042833D1002080210790A7F10A028DF82A
:103DE800200002230390019040F20940069104F15B
:103DF800240127F80A0C01A805910321E58803F09E
:103E080001F9C1B2082917D10798802819D9E068A3
:103E1800092121800068BFF35F8F00B3A17C0122D4
:103E280002F0ABFFA0690068BFF35F8FB8B1A17F54
:103E3800012202F0A2FF02200AB0B0BD07200AB09A
:103E4800B0BDA84238BF0546012000212080204689
:103E5800C4E92B15FFF710FD08200AB0B0BD40F2E9
:103E6800F04040F27452C2F22000C2F22002222135
:103E780003F09DFDFEDEF0B503AF2DE9000786B027
:103E88001D46904689468246D6000C4686B1F4E81F
:103E980002012A464B6A51469847BAF80000083E84
:103EA80000F00D000428F1D006B0BDE80007F0BD11
:103EB800687A20B3BAF8000000F00D000428F3D1A6
:103EC800DAF80C000921AAF800100068BFF35F8F28
:103ED80000286ED09AF81210012202F04EFFDAF88C
:103EE80018000068BFF35F8F002862D09AF81E1090
:103EF800012202F042FF06B0BDE80007F0BD297AB2
:103F0800A87991B1012923D0022908BF0028D1D16D
:103F18006988DAF8DC0001F08F0102F0A1FF0221C4
:103F28000591A7F12201049130E020B3062834D08E
:103F38000828BFD19AF8E20001210591A7F12201D2
:103F480002380491B0FA80F0400907F8220C1FE00B
:103F580050B10A28AED101200590A7F122000490A3
:103F6800002007F8220C13E002200590A7F1220098
:103F7800049000200AE09AF8E00002229AF8E11082
:103F88000592A7F12202049241EA400027F8220C88
:103F980004A95046FFF7EEFE8CE769884246288858
:103FA8005346CDE900010AF1B400494600F0D8F8BB
:103FB80080E740F2F04040F27452C2F22000C2F2B0
:103FC8002002222103F0F3FCFEDED4D4F0B503AFC7
:103FD8004DF8048D84B01D460E468046D4006CB161
:103FE800F6E802012A460B6A41469847B8F80000ED
:103FF800083C00F00D000428F1D059E0687A30B18F
:10400800B8F8000000F00D00042851D128E02A7A01
:10401800A879298892B1012A1ED0022A20D1012824
:104028004AD0032808BF00291AD169880122D8F884
:10403800DC0001F08F0102F0A0FE88E001380828BA
:104048000ED8DFE800F0050D6A0D700D0D0D790032
:10405800012905D1002063E00B2808BF002936D0CC
:10406800B8F8000000F00D00042821D1D8F80C00A1
:104078000921A8F800100068BFF35F8F002840D01E
:1040880098F81210012202F078FED8F8180000689B
:10409800BFF35F8F00281FBF98F81E10012204B0DD
:1040A8005DF8048B1CBFBDE8F04002F066BE28E056
:1040B80004B05DF8048BF0BD0029D1D169880022D5
:1040C800D8F8DC0001F08F0102F057FE3FE0B8F8A5
:1040D800000006287FF494AFD8F818000168BFF3F1
:1040E8005F8F71B198F81E20002040F22463009081
:1040F80002A8C2F2200302F0E4FC0820A8F800009D
:104108007EE740F2F04040F27452C2F22000C2F260
:104118002002222103F04BFCFEDE0129A0D1012060
:1041280088F8E00013E0481E80B27F2898D2D8F8BB
:10413800DC0002F020FC07E019B1012990D102202F
:1041480003E098F8E20030B1012088F8E200404628
:10415800FFF722FA54E74046FFF753FC50E7D4D460
:10416800F0B503AF2DE9000B84B0D7E902690D461D
:1041780098464FF0FF330090B1B203EB11210E299E
:1041880000F25C80DFE801F008101C5A5A5A5A5AAB
:104198005A5A5A5A5A5A2B0069464046FFF7D4FCD5
:1041A80004B0BDE8000BF0BD684601A90190404687
:1041B800CDE90252FFF719FD04B0BDE8000BF0BDD0
:1041C800F1B2032914D8DFE801F0021F2333404677
:1041D80004B0BDE8000BBDE8F040FFF7F4BD404671
:1041E800294604B0BDE8000BBDE8F040FFF735BC38
:1041F800D4001CB3F5E802014A464B69314698479A
:10420800083C0028F5D009E0011D006828B915E030
:1042180000F10C010830006880B10968CDE901019E
:1042280001A94046FFF754FD04B0BDE8000BF0BDFE
:1042380000F11401103000680028EED1B8F8000031
:1042480000F00D000428ABD1D8F80C000921A8F81B
:1042580000100068BFF35F8FB0B198F81210012208
:1042680002F08BFDD8F818000068BFF35F8F0028B4
:104278001FBF98F81E10012204B0BDE8000B1CBF38
:10428800BDE8F04002F079BD40F2F04040F27452CF
:10429800C2F22000C2F22002222103F088FBFEDED7
:1042A800F0B503AF2DE9000F8BB0D0F8DC4006461F
:1042B800A7F12E0088461546214602F00EFE96F814
:1042C800E20037F82E1C032813D100294FF0000014
:1042D80018BF032903D10BB0BDE8000FF0BD96F855
:1042E800E300042800F0F380042286F8E20086F850
:1042F800E320DFE801F003082548030000200BB0A5
:10430800BDE8000FF0BD204602F0ABFB00204FF4E3
:104318008061002D86F8E40086F8E000A6F8E21037
:104328003080EBD008EBC504A8F1080555F8080F54
:1043380069688969884705F10800A042F6D1DDE778
:1043480037F82C0C37F82A1C37F8282C0390084328
:1043580040EA0209059104925FEAC97047D00598BE
:10436800C0071CBF3046FFF7E5FA0498C00714D110
:104378000398C0071BD1042007F81D0C17F81D0C63
:1043880004281DD131E0032186F8E30086F8E21005
:1043980000200BB0BDE8000FF0BDA7F126003146A4
:1043A800FFF7BBF917F81D0C042809D11DE0A7F188
:1043B80026003146FFF719F917F81D0C042814D008
:1043C80017F81F0C002873D080280ED1A7F12603F8
:1043D800304641462A46FFF74EFD29F00109B9F15A
:1043E800000FCDE9018507D14DE029F00109B9F1A8
:1043F800000FCDE9018546D00299002953D00198D4
:1044080001264FF0020B00EBC108A0F10805049843
:104418002C461BEA000F0AD054F8080F61688A6A14
:104428003146904704F108004045F5D10EE0039865
:104438002C461BEA000F09D054F8080F6168CA6AB5
:104448003146904704F108004045F5D105981BEA2C
:10445800000F0DD066F07F04AA465AF8080FDAF864
:1044680004100A6B214690470AF108004045F4D130
:1044780029EA0B095FEA094005D0701C0F2E4FEAA4
:104488004B0B0646C3D3029969B1019800EBC104EE
:10449800A0F1080555F8080F6968C969884705F14A
:1044A8000800A042F6D101200BB0BDE8000FF0BD16
:1044B800A7F12603304641462A46FFF787FD29F033
:1044C8000109B9F1000FCDE9018595D1DBE740F28B
:1044D800BC6040F23872C2F22000C2F220021C21F5
:1044E80003F032FAFEDEF0B503AF2DE9000F85B018
:1044F8000446886800287AD192F821A04FF0FF304E
:1045080001F10C058860002090460E46CDE9000AAE
:104518000290284600210122002302F0EFF9894683
:10452800B168C00701F10101B16067D100295ED10E
:104538004FF0FF304FF0000BB06028468021012279
:104548008023CDE900BACDF808B002F0D7F9C0074A
:1045580069D1B0683268A4F81FB006F1440B013085
:10456800002AA177A4F81CA0C4F818B0B06072D1D2
:104578004FF0FF310028316074D12846B16002F055
:104588003DFAB0680130B06073D34FF0FF3080213E
:10459800B06004F12400BFF35F8F7564BFF35F8FD1
:1045A80004F00DFA4FF0000CC4F8DC50A4F813C066
:1045B80004F1B40184F81290A4F810A0C4F80CB067
:1045C800B8E86D006DC198E86D006DC1042084F8ED
:1045D800E2C0C4E92BCCC4F8A4C0A4F800C0A4F875
:1045E800E300A4F8E0C005B0BDE8000FF0BD40F25C
:1045F800A040C2F2200003F071F9FEDE40F26870BC
:1046080040F24873C2F22000A7F11E02009040F267
:10461800B000C2F22000C2F2200307F81E9C20213D
:1046280003F0FCF9FEDEB06840F2487307F81D1C81
:10463800C2F220030130B06040F25870A7F11D02A9
:10464800C2F22000009040F2B000C2F22000202107
:1046580003F0E4F9FEDE40F2D040C2F2200003F09D
:104668003DF9FEDE40F2C040C2F2200003F036F908
:10467800FEDE40F2B040C2F2200003F02FF9FEDE69
:104688007047007840F290020B4640F2D871C2F2AF
:104698002001C2F2200251F8201052F820201846BA
:1046A80003F09DBC8B6BC96B02601ABA09BAC0E9EA
:1046B8000221704780B56F460368D0E902CE426098
:1046C80010BA486318BA08639CFA8CF088639EFA9B
:1046D8008EF0C86380BDF0B503AF2DE9000F81B03F
:1046E80048F24C014FF0010CC2F20001BFF35F8F9A
:1046F800D1E84F2FC1E843CF002BF9D1BFF35F8F2B
:10470800002A01BF48F20001C4F20D010022C4F2E0
:104718002F0201BF02F5542C02F5502E02F54C2849
:10472800A1F5004401BFA1F5003501F5F61601F524
:10473800F413C0E9683601BFC0E96A54C0E96C8E59
:10474800C0E96EC101F5005E01BF01F5805640F277
:10475800040CC4F22E0C01F5021401BF0CF5FE7511
:1047680001F5004300F5C07888E8380001BF00F57E
:10477800C67383E81210C0E9666EA1F5404C01BF0C
:1047880001F5881E01F5861801F5841401F58213D8
:1047980001BF01F5003602F51025C0E9585600F5AD
:1047A800B47501BF85E81A41C0F87CC1A1F5804CF9
:1047B80002F51C2E01BF02F5182802F51424A1F5F4
:1047C800E03301F5282601BF01F5EE15C0E9505682
:1047D80000F5A47585E8184101BFC0E9562C02F51B
:1047E800782802F5742902F5702401BF02F56C23BC
:1047F8004CF2000CC4F2070C0CF5004601BF01F5A1
:10480800E03E01F58E15C0E9485EC0E94A6101BF86
:1048180000F5987585E81802C0F83C8101F548282C
:1048280001BF01F5442901F5402A01F53C2B01F5AA
:10483800382301BF01F5342401F5302501F52C2674
:10484800C0E9406501BFC0E94243C0E944BAC0E9D4
:10485800469802F5302801BF02F52C2902F5282ACE
:1048680002F5242B02F5861301BF02F5841402F524
:10487800821502F58016C0E9386501BFC0E93A43E0
:10488800C0E93CBAC0E93E9801F5F01801BF01F54E
:104898009219A1F5503AA1F5403BA1F5303301BF7B
:1048A80001F5901401F58C1501F58A16C0E93065FB
:1048B80001BFC0E93243C0E934BAC0E9369844F2CE
:1048C800000B01BFC4F2002B0BF500490BF5804A21
:1048D8004FF0844801BF01F56C2601F5682401F505
:1048E8006425A1F5C03301BFC0E9283500F1A8034C
:1048F80083E85009C0E92EA901BF01F5602801F538
:10490800E61901F5E81AA1F5203601BF0BF5E033E9
:1049180001F5582401F55425C0E9205401BF00F1E0
:10492800880484E84804C0E9259EC0F89C8001BF3B
:10493800A1F5103E01F5FE1801F5001902F5642AEB
:1049480001BF02F5602302F55C2602F5582501F542
:10495800A03401BF00F1600B8BE87000C0E91B3A7E
:10496800C0E91D9801BFC0F87CE001F5803E02F562
:1049780040480CF5804901BF01F5804A01F5F21362
:1049880044F20806C4F2090601BF06F1100506F153
:104998000804C0E91064C0E9125301BFC0E914A9B2
:1049A800C0E9168E0CF5C03E01F5103801BF01F5BF
:1049B800801901F57C2401F5782302F57C2601BFD6
:1049C80002F54825C0E9085600F1280585E81802CF
:1049D80001BFC0E90D81C0F83CE002F5442E02F5A4
:1049E8000C2601BF01F5D21501F5242402F5402259
:1049F800A1F5803301BFA1F5A031C0E90013C0E9DA
:104A0800022C103001BF80E8704001B0BDE8000FF3
:104A1800F0BD40F2F87040F69002C2F22000C2F2F7
:104A28002002352102F0C3FFFEDEF0B503AF4DF8DA
:104A380004BD0E4600211546044600F055FB2846E5
:104A480040F2E24100F031FA304600F0E9FA40F273
:104A580010152146C2F2200500222846366800F0CB
:104A680005FBA81C2146002200F000FB281D21465A
:104A7800002200F0FBFAA81D2146002200F0F6FAF9
:104A880005F108002146002200F0F0FA05F10A00BD
:104A98002146002200F0EAFA05F10C002146002226
:104AA80000F0E4FA05F10E002146002200F0DEFADB
:104AB80005F110002146002200F0D8FA05F1120095
:104AC8002146002200F0D2FA05F114002146002206
:104AD80000F0CCFA05F116002146002200F0C6FAD3
:104AE80005F118002146002200F0C0FA05F11A006D
:104AF8002146002200F0BAFA05F11C0021460022E6
:104B080000F0B4FA05F11E002146002200F0AEFACA
:104B180020684169890107D5416921F00071416127
:104B2800204600F0D2FA20684169012221F0605144
:104B380041612068816962F30D318161204600F08E
:104B4800C4FA2068416941F000714161204600F0D3
:104B5800BCFA4FF480503060642030604FF400504D
:104B680070603068002809D4306800285CBF30685D
:104B7800002803D43068B0F1FF3FF2DC206801223E
:104B8800016962F302010161204600F09EFA206883
:104B9800416921F4E0514161204600F096FA20680D
:104BA800816941F4402181612068416921F00071E7
:104BB8004161204600F089FA206840F6AA05C2F251
:104BC80020050022416941F440714161284621468F
:104BD80000F04CFAA81C2146002200F047FA281DD4
:104BE8002146002200F042FAA81D2146002200F0CA
:104BF8003DFA2068022640F6B2050022C2F22005DE
:104C0800816B66F3D84181632068816B41F4802110
:104C180081632846214600F029FAA81C2146002273
:104C280000F024FA281D2146002200F01FFAA81DD2
:104C38002146002200F01AFA206840F6A005032257
:104C4800C2F22005816966F30511816120688169D6
:104C580062F39C61816128462146002200F006FA31
:104C6800A81C2146002200F001FA281D2146002236
:104C780000F0FCF9A81D2146002200F0F7F905F123
:104C880008002146002200F0F1F92068172240F2BE
:104C98008215C2F22005C16962F30501C16120686D
:104CA8000022C16941F04001C1612846214600F057
:104CB800DDF9A81C2146002200F0D8F9281D21465C
:104CC800002200F0D3F9A81D2146002200F0CEF9F9
:104CD80005F108002146002200F0C8F905F10A0094
:104CE8002146002200F0C2F905F10C0021460022FD
:104CF80000F0BCF905F10E002146002200F0B6F9DB
:104D0800206840F6BA05C2F220050322416A41F044
:104D1800400141622068416A66F305014162284604
:104D2800214600F0A3F9A81C2146032200F09EF9B1
:104D3800281D2146032200F099F9A81D21460322C7
:104D480000F094F905F108002146032200F08EF9DD
:104D580005F10A002146032200F088F905F10C004C
:104D68002146032200F082F905F10E0021460322B4
:104D780000F07CF905F110002146032200F076F9D5
:104D880005F112002146032200F070F905F1140024
:104D98002146032200F06AF905F116002146032294
:104DA80000F064F905F118002146032200F05EF9CD
:104DB80005F11A002146032200F058F905F11C00FC
:104DC8002146032200F052F905F11E002146032274
:104DD80000F04CF905F120002146032200F046F9C5
:104DE80005F122002146032200F040F905F12400D4
:104DF8002146032200F03AF905F126002146032254
:104E080000F034F905F128002146032200F02EF9BC
:104E180005F12A002146032200F028F905F12C00AB
:104E28002146032200F022F905F12E002146032233
:104E380000F01CF905F130002146032200F016F9B4
:104E480005F132002146032200F010F905F1340083
:104E58002146032200F00AF905F136002146032213
:104E680000F004F905F138002146032200F0FEF8AD
:104E780005F13A002146032200F0F8F805F13C005C
:104E88002146032200F0F2F805F13E0021460322F4
:104E980000F0ECF805F14000214603225DF804BB60
:104EA800BDE8F04000F0E2B8FEE740F22762914228
:104EB80038BF0A46B2F5487F98BF4FF44872A2F54A
:104EC800487144F2AF7300688AB25A43C368A1EBD1
:104ED800124189B2490801EB124123F01F0242EA4C
:104EE8001111C16004E00168B1F1FF3FD8BF7047FC
:104EF8000168002905D4016800295CBF0168002900
:104F0800F1D57047F0B503AF2DE9000B44F2E0434B
:104F1800C4F21F031B68C3F30B2E4FEA135CE6456C
:104F28001FBF0124C1F88841DBB24FF47A781FBF54
:104F380003FB08F9ACEB0E04D1F8906149F658650B
:104F48001FBFCFF6FF7513FB085393FBF4F3C2EAB8
:104F580006021FBFC1F8902180E80A40C0F80C90F3
:104F6800BDE8000B18BFF0BD40F6001040F68812EF
:104F7800C2F22000C2F22002192102F018FDFEDE62
:104F8800B0B502AF054608680C4640F480300860AA
:104F9800086840F040000860222063F3134048602E
:104FA80040F26850C0F20C10086240F29510C0F24E
:104FB800B2004862DC20C0F27A0088627D20C0F22C
:104FC8005800C8624B20C0F2400008632F20C0F28E
:104FD8002E004863886346F62010C86040F6A31088
:104FE80088604FF4C840C8614FF4C860886140F6D3
:104FF800C410C0F6804008613F204861086820F06E
:10500800030010430860086820F480300860C86F07
:105018004021281D03F0D3FC10202C606864B0BD2B
:1050280080B56F4600684FF400514FF480524FF03E
:10503800400C4FF4803E00E0416103699B04FBD5BE
:105048000369DB0401D44261F7E70369B3F1FF3F69
:10505800F3DC0369DB0306D403695B0648BF80BD44
:10506800C0F814C0E9E7C0F818E0E6E70378D1F81B
:1050780000C0DFE803F004070A0D101316190CF13D
:10508800680C13E00CF16C0C10E00CF1700C0DE0E6
:105098000CF1740C0AE00CF1780C07E00CF17C0CB4
:1050A80004E00CF1800C01E00CF1840C4078032141
:1050B800DCF800304000C0B2824001FA00F023EA78
:1050C80000001043CCF800007047006803E0816CD2
:1050D800002908BF7047816C29B1816C00291CBF69
:1050E800816C0029F3D170470068426D22F00302F9
:1050F800114341657047F0B503AF2DE90007ADF5E1
:10510800047D6D46804628464FF4007103F057FC35
:1051180044F2B829A5F11006C2F200090DF5007A8B
:1051280000244D46D9E96001CDE9820150468194B9
:10513800809502F0FEFA80AB01340C35202C0FCBA1
:1051480046F8100F06F104000EC0EBD16946404640
:105158004FF4007203F031FC0DF5047DBDE8000743
:10516800F0BDF0B503AF2DE9000B84464668C8B220
:105178004D0045EAD014E0B2864217D9DCF8189001
:1051880004F00F04D7F80880012606FA04FEBFF3DE
:105198005F8F59E8006F46EA0E0449E80045002D84
:1051A800F7D116EA0E0FBFF35F8F03D00020BDE8DA
:1051B800000BF0BDDCF80CE0864542D9DCF814E0C1
:1051C800864546D9DCF800601D46B3F5806F06EBCE
:1051D8008014266846F000562660266828BF4FF4DB
:1051E80080656FF31A4646EA0546266026685FEA38
:1051F8000865DCF808E026F40049DCF810C04EB277
:105208004D4608BF05F50045B6F1FF3FD8BF4D46EE
:105218002560450101264EF805600EEB401600EBAF
:105228008000756825F0FF0575604CF820200CEBB0
:1052380080000174011D80F8118058C1BDE8000B81
:10524800F0BD40F61822C2F22002714602F0C6FBF9
:10525800FEDE40F62822C2F22002714602F0BEFBB2
:10526800FEDED0E900018C220968002808BF8422EC
:10527800885840F0004088507047D0E900018C22DF
:105288000968002808BF8422885820F00040885008
:105298007047D0E900018C220968002808BF8422E1
:1052A800885840F0804088507047D0E900028C232D
:1052B8001268002808BF8423D05820F0807040EA84
:1052C8000160D0507047D0E900028823002808BF49
:1052D80080236FF07F401268814238BF084601285A
:1052E80098BF01200138D0507047D0E900018822CA
:1052F8000968002808BF802288587047D0E9000153
:105308004FF0007209680028D1F8441108BF4FF027
:10531800807211EA020018BF01207047D0E900012D
:105328004FF000720968002808BF4FF08072C1F87A
:1053380044217047D0E900024FF00073126800283A
:1053480008BF4FF080736FF00070D2F848C108BFF3
:105358006FF08070002900EA0C0018BF1843C2F8EB
:105368004801704780B56F46D0E9072E4FF0004CD2
:105378004FF08043CEF834C0CEF838C0CEF838307D
:105388000023CEF800300223C2F84031D2F8403171
:105398009B070CD5D2F840319B0744BFD2F8403167
:1053A8005FEA837303D5D2F840319B07EED44FF000
:1053B800000C0A23C2F840C10029C2F8A831D2F86B
:1053C800843123F0807308BF03F18073C2F88431FD
:1053D800D2F844110068C2F84411C2F848C1C2F8B2
:1053E800580180BDF0B503AF2DE900079AB0044617
:1053F800C069D0F8B811C0F8B811E069D0F8BC118C
:10540800C0F8BC11E069D0F87811C0F87811002113
:10541800E069C0F87C11E069D0F8B01159B1D0F852
:10542800B01100291CBFD0F8B011002903D0D0F862
:10543800B0110029F0D14FF0FF31C0F8B411E06984
:10544800D0F8B41159B1D0F8B41100291CBFD0F864
:10545800B411002903D0D0F8B4110029F0D10025E7
:105468000DF10409082009F14006CDE90650012094
:1054780009F1100A0DF148080590002010940C95C8
:1054880008950395019538E0007C10F07F0104D160
:1054980051E0007C10F07F0136D0E26911910139AA
:1054A80006294CD8DFE801F004070A0D101316008E
:1054B80002F5E27110E002F5E4710DE002F5E67123
:1054C8000AE002F5E87107E002F5EA7104E002F586
:1054D800EC7101E002F5EE7140B2B0F1FF3F4FF41C
:1054E80000206FF40C03C8BF08200A68C8BF6FF01B
:1054F8008C031A40104308600198129600281EBFBA
:10550800029802950028C4D10598019502280AD06E
:10551800504641464A4600F0F4FE20B1007C10F0A7
:105528007F01BAD1E8E70398019500281EBF0498C7
:1055380004950028A8D11AB0BDE80007F0BD0020E6
:1055480040F6004116900220139040F69030C2F2C7
:105558002000C2F2200112900120159018A8149082
:1055680046F2CF20C0F20000199011A8189012A896
:1055780002F007FAFEDE02464368C8B2490041EA73
:10558800D011C8B2834218D9936901F00F011B6882
:10559800BFF35F8F9BB223FA01F1C9070DD05169A0
:1055A800814284BF0120704780B56F4640F6F812EB
:1055B800C2F2200202F012FAFEDE00207047F0B5B7
:1055C80003AF2DE9000F83B08046486800281FBF4D
:1055D80088690068BFF35F8F5FEAC0700BD140F63F
:1055E800382040F6C422C2F22000C2F220022B2149
:1055F80002F0DDF9FEDE4869002800F015819A46C0
:1056080051F81C3F0125BAF1080F51F80C0CD3F8DA
:10561800AC6190F9104004F01F0C05FA0CF56ED33C
:105628002E406CD0D0F808C0C3F8AC51D3F8405124
:1056380045F40055C3F84051DCE90A45D3F8406108
:10564800B60425D4D3F8406146F40056C3F8406147
:10565800DCE90A45D3F84061B6045FBFD3F840617E
:1056680046F40056C3F84061DCE90A455CBFD3F84C
:1056780040615FEA86460BD4D3F8406146F4005691
:10568800C3F84061DCE90A45D3F84061B604CDD5DA
:10569800D3F8406126F40056C3F8406190F910C071
:1056A800D3F8B8615560BCF1000F14600CF01F020C
:1056B8004FF0010548BF360C95402E40360614D1F0
:1056C8004FF48036BCF1FF3FC8BF01264FF47F0579
:1056D80006FA02F2C8BFFF252A40C3F8782182687B
:1056E8001268C2F30A4200F0F5FE0820C8F8040068
:1056F800002088F8000003B0BDE8000FF0BDC668C0
:10570800766816F0680F01D0072008E0D3F8B86172
:10571800002C48BF360C2E40360609D0002088F8E9
:105728000100012088F8000003B0BDE8000FF0BDBB
:105738004FF480354FF47F06B4F1FF3FC8BF012511
:10574800C8BFFF2605FA0CF52E40C3F8BC6190F9D6
:1057580010604FF4803E4FF47F04B6F1FF3F06F02F
:105768001F06C4BFFF244FF0010E0EFA06F62640AE
:10577800C3F87861C668D0E9013CDCF80050746869
:10578800F669C5F30A45554538BFAA46C4F30E4520
:10579800761BB24528BFB2469A4528BF9A46BAF149
:1057A800000F38D0D0F800B00AF00306BAF1040FA1
:1057B80001D2002420E0CDE9016C40F2FC740AEA31
:1057C800040902F1010C00240BEB04031BF804503C
:1057D8000CEB040693F801E00CF804E00434A1454E
:1057E80093F802E006F8015C86F801E0DB78B37014
:1057F800EAD1DDE9016CA3446EB19BF80030012EBB
:10580800135508D022449BF80130022E53701CBF58
:105818009BF802309370DCF80020C2F30A4200F0D3
:1058280059FEC8F804A063E740F608220020C2F237
:105838002002002102F0D2F8FEDEF0B503AF2DE918
:10584800000F83B0834648680228C0F02781886922
:1058580088460068BFF35F8F800740F11F81D8F842
:105868001410012940F20981D8F81000016A49682A
:1058780011F0680F01D0072014E09A4690F8243000
:10588800C146012159F81CCF5DB203F01F03002D5A
:10589800DCF8B84101FA03F148BF240C214009069D
:1058A80009D000208BF8010001208BF8000003B01C
:1058B800BDE8000FF0BD4FF48031B5F1FF3FC8BF20
:1058C80001214FF47F0501FA03F1C8BFFF252940E4
:1058D800CCF8781100F11406D0E906010968C1F383
:1058E8000A41514538BF8A46824528BF8246BAF1E7
:1058F800000F65D0CDF808900AF0030CD6F8009098
:10590800BAF1040F02D200214B4619E040F2FC70B4
:105918000AEA000E501C002101964618445C16F84D
:10592800013C7578B67809F8013009EB01030431B8
:105938008E455C709D70DE70EFD1019E09EB01030E
:10594800BCF1000F0CD0505CBCF1010F187007D0EF
:105958008818BCF1020F417859701CBF8078987084
:10596800AAF10100012101EB501505F0030401F033
:105978000BFF4EF6707029F01F01CEF20000BAF14D
:10598800610F02D2DDF8089011E0DDF8089025F0EB
:10599800030201F120030160036001F14003036089
:1059A80001F16003043A01F180010360F1D1002C98
:1059B8001CBF0160012C58D101F0E6FE01F0E7FEA2
:1059C80030464946524600F085FDD8F804000028C4
:1059D8001FBFD8F818000068BFF35F8F5FEAC07078
:1059E80068D0D8F8140000284FD0D8F81000012546
:1059F800D8F81C10027CD1F8B86153B202F01F022B
:105A0800002B48BF360C95402E40360624D1B3F102
:105A1800FF3F4FF48033C8BF01234FF47F0403FADC
:105A280002F2C8BFFF242240C1F8BC2190F910201F
:105A38004FF480364FF47F05B2F1FF3F02F01F02AA
:105A4800C4BFFF25012606FA02F22A40C1F87821D0
:105A58004946002200F03EFD0020CBF804A08BF858
:105A6800000003B0BDE8000FF0BD01F120020260A4
:105A7800022C1CBF403101609EE740F6082201203D
:105A8800C2F2200201F0AAFFFEDE40F60822002042
:105A9800C2F22002002101F0A1FFFEDE40F638200C
:105AA80040F6D422C2F22000C2F220022B2101F0DB
:105AB8007EFFFEDE40F6382040F6E422C2F22000E7
:105AC800C2F220022B2101F072FFFEDEF0B503AF17
:105AD8002DE9000F83B08146387A98460B464E6808
:105AE800410041EAD011C8B2864240F2C5809E69A1
:105AF80001F00F013668BFF35F8FB6B226FA01F1E5
:105B0800C90700F0B9805969814240F2AE8019692D
:105B180000EB800001EB8000C168496811F0680F54
:105B280001D0072012E01946057C51F81CCF05F07A
:105B38001F0E6CB20125DCF8B86105FA0EF5002CD1
:105B480048BF360C35402D0609D0002089F80100E1
:105B5800012089F8000003B0BDE8000FF0BD9B8D5F
:105B680004F00F05EB40DB07EFD0B4F1FF3F4FF433
:105B780080344FF47F06C8BF0124C8BFFF2604FA4B
:105B88000EF42640CCF8BC6190F910604FF48033D5
:105B98004FF47F05B6F1FF3F06F01F06C4BFFF258F
:105BA8000123B3402B40CCF87831C668D0E9013CDA
:105BB800DCF800507468F669C5F30A45454538BFF6
:105BC800A846C4F30E45761BB04528BFB046984595
:105BD80028BF9846B8F1000F38D0D0F800B008F0C8
:105BE8000305B8F1040F01D2002620E0CDE9015CDD
:105BF80040F2FC7408EA040A02F1010C00260BEBDF
:105C080006031BF806500CEB060493F801E00CF8A9
:105C180006E00436B24593F802E004F8015C84F823
:105C280001E0DB78A370EAD1DDE9015CB3446DB132
:105C38009BF80030012D935508D032449BF8013071
:105C4800022D53701CBF9BF802309370DCF80020C3
:105C5800C2F30A4200F03EFC0020C9F8048089F82B
:105C6800000003B0BDE8000FF0BD40F60822C2F204
:105C7800200201F0B3FEFEDE40F6382040F6F422A2
:105C8800C2F22000C2F220022B2101F090FEFEDEBB
:105C9800F0B503AF2DE9000F81B08146387A9846F8
:105CA8008B464B68410041EAD011C8B2834240F2AA
:105CB800D080DBF8183001F00F011B68BFF35F8F4D
:105CC8009BB223FA01F1C90700F0C380DBF8141076
:105CD800814240F2B780DBF8101000EB800001EB46
:105CE800800ADAF80C00406810F0680F01D007202D
:105CF80012E09AF8101001255BF81C0F4BB201F066
:105D08001F01D0F8B841002B05FA01F548BF240C53
:105D180025402D0609D0002089F80100012089F8C6
:105D2800000001B0BDE8000FF0BD4FF48035B3F1BD
:105D3800FF3FC8BF01254FF47F0305FA01F1C8BF33
:105D4800FF231940C0F87811DAE901010968C1F3A5
:105D58000A41414538BF8846804528BF8046B8F18A
:105D6800000F59D0DAF8004008F00306B8F1040F24
:105D780002D20021234618E040F2FC7008EA000E27
:105D8800501C002100964618455C16F8013C96F810
:105D980001C0B6786354631804318E455D7083F88A
:105DA80002C0DE70EFD1009E631856B1505C012E20
:105DB800187006D08818022E417859701CBF807858
:105DC8009870A8F10100012101EB501606F00305B7
:105DD80001F0DAFC4EF6707024F01F01CEF20000DC
:105DE800B8F1610F0FD326F0030201F1200301601F
:105DF800036001F14003036001F16003043A01F11B
:105E080080010360F1D1002D1CBF0160012D11D16B
:105E180001F0BAFC01F0BBFC50465946424600F07E
:105E280059FBC9F80480002089F8000001B0BDE8DA
:105E3800000FF0BD01F120020260022D1CBF4031AD
:105E48000160E5E740F60822C2F2200201F0C6FD33
:105E5800FEDE40F6382040F60432C2F22000C2F2DC
:105E680020022B2101F0A3FDFEDED4D4B0B502AF91
:105E78008AB084464568D0B2530043EAD013D8B2FA
:105E8800854240F28A80DCF8185003F00F032D6831
:105E9800BFF35F8FADB225FA03F3DB0700F07D8017
:105EA800DCF81430834240F270805CF81CEF00EBA1
:105EB80080005CF80C3C03EB8000047C04F07F035A
:105EC8000193072B00F2758064B2DFE803F0041C2D
:105ED8000A10162228360EF5E0731D68002C31D5FD
:105EE80022E00EF5E4731D68002C2BD51CE00EF59E
:105EF800E6731D68002C25D516E00EF5E8731D68BD
:105F0800002C1FD510E00EF5E2731D68002C19D582
:105F18000AE00EF5EA731D68002C13D504E00EF5AF
:105F2800EC731D68002C0DD525F4803461F3104402
:105F380052B2002A1C600CD51BE00EF5EE731D68EA
:105F4800002CF1D425F001040C4452B2002A1C6044
:105F58000FD471B9DEF8B811012390F91020002A86
:105F680002F01F0248BF090C03FA02F211400906A9
:105F780001D00AB0B0BD81680968C1F30A42614620
:105F88000AB0BDE8B04000F0A5BA40F608221946AC
:105F9800C2F2200201F022FDFEDE40F6382040F673
:105FA8001432C2F22000C2F220022B2101F0FFFCC1
:105FB800FEDE002040F6004106900220039040F6E5
:105FC8009030C2F22000C2F2200102900120059018
:105FD80008A8049046F2CF20C0F20000099001A85A
:105FE800089002A801F0CDFCFEDED4D480B56F463F
:105FF8008AB002464368C8B2490041EAD011C8B223
:1060080083424BD9936901F00F011B68BFF35F8F7F
:106018009BB223FA01F1C90740D05169814236D9B0
:10602800136900EB8000D16903EB8000007C00F06D
:106038007F020192072A3DD840B2DFE802F004103F
:10604800070A0D13161901F5E07113E001F5E47163
:1060580010E001F5E6710DE001F5E8710AE001F5DF
:10606800E27107E001F5EA7104E001F5EC7101E085
:1060780001F5EE7109684FF48032B0F1FF3FC8BFF7
:10608800012211EA020018BF01200AB080BD40F6C3
:10609800F812C2F2200201F0A1FCFEDE40F6382020
:1060A80040F62432C2F22000C2F220022B2101F075
:1060B8007EFCFEDE002040F60041069002200390A0
:1060C80040F69030C2F22000C2F220010290012076
:1060D800059008A8049046F2CF20C0F2000009906D
:1060E80001A8089002A801F04CFCFEDEF0B503AF51
:1060F8002DE9000F9BB00DF1080A0026082100F1D8
:106108001C040AF140080AF1100B0DF14C09CDE905
:10611800076101211190CDE9010600200D9609962D
:10612800069104963FE0017C11F07F0204D159E00A
:10613800017C11F07F023ED023681292013A062AB0
:1061480000F2C380DFE802F004070A0D10131600FE
:1061580003F5E27210E003F5E4720DE003F5E67270
:106168000AE003F5E87207E003F5EA7204E003F5D4
:10617800EC7201E003F5EE72407C49B21368B1F1AC
:10618800FF3F08DD00F00F0023F00C0141EA80001A
:1061980040F0C00005E023F44C0141EA804040F49F
:1061A800400010600298CDF84C8000281EBF03986C
:1061B80003960028BCD10698029602280AD05846B1
:1061C8004946524600F09DF820B1017C11F07F024B
:1061D800B2D1E7E70498029600281EBF05980596F5
:1061E8000028A0D10198002611900820CDE9076069
:1061F80001200DF14C09069000200D960996049691
:10620800029600E00298CDF84C8000281EBF039843
:10621800039600281BD10698029602280AD05846F1
:106228004946524600F06DF820B1017C11F07F021A
:1062380011D139E00498029600281EBF05980596EA
:1062480000283ED0017C11F07F0204D139E0017CA6
:1062580011F07F02DFD023681292013A062A34D85F
:10626800DFE802F004070A0D1013160003F5E272C6
:1062780010E003F5E4720DE003F5E6720AE003F5B9
:10628800E87207E003F5EA7204E003F5EC7201E056
:1062980003F5EE724BB21268B3F1FF3F4FF40003FF
:1062A800C8BF80231A42ADD049B2B1F1FF3FA9DD82
:1062B80081680968C1F30A42214600F00BF9029887
:1062C800A1E71BB0BDE8000FF0BD002040F600417B
:1062D80017900220149040F69030C2F22000C2F2CB
:1062E800200113900120169019A8159046F2CF208E
:1062F800C0F200001A9012A8199013A801F041FBEF
:10630800FEDEF0B503AF2DE9000F85B0C1680029A6
:106318001CBFD0E904138B4271D102AE84464ACE29
:106328004CF8101F0168C0E90536002950D0D0E9A3
:106338000191894501914BD200F118044FF0010EEB
:106348004FF0000B02E001998A4541D0022109F182
:10635800010A416149F080015FFA89F3D14643EAB5
:10636800012101830021C0F80CE0C0F804A005E079
:10637800C2E900EBD0E904138B42E4D04B1C036163
:10638800615CC56A4B0043EAD111D5F80480CBB2F1
:106398009845EDD9AE6901F00F013668BFF35F8FFC
:1063A800B6B226FA01F1C907E2D06969994240F20A
:1063B8008980296903EB8303C2E900EB01EB8301C0
:1063C8000B7C5B06D6D0084605B0BDE8000FF0BDD3
:1063D80002AE0025C5604ACE8CE84A00C169002992
:1063E8001CBFD0E908138B423BD102AE00211C3000
:1063F8004CCE4EC0084605B0BDE8000FF0BD00F118
:1064080018064FF0000C4FF0010E06E0C2E900EC50
:10641800D0E904138B423FF480AF4B1C0361715CDD
:10642800C56A4B0043EAD1116C68CBB29C42EDD9E6
:10643800AC6901F00F012468BFF35F8FA4B224FA9E
:1064480001F1C907E2D0696999423BD9296903EB8F
:106458008303C2E900EC01EB83010B7C5B06D7D018
:10646800B1E700F128064FF0000C4FF0010E05E0EF
:10647800C2E900ECD0E908138B42B6D04B1C03628A
:10648800715CC56A4B0043EAD1116C68CBB29C427F
:10649800EED9AC6901F00F012468BFF35F8FA4B295
:1064A80024FA01F1C907E3D0696999420AD929692F
:1064B80003EB8303C2E900EC01EB83010B7C5B0671
:1064C800D8D080E740F608221846C2F2200201F030
:1064D80085FAFEDEF0B503AF4DF8048D82B00546AF
:1064E8008846EE680121006831607168F26162F3E4
:1064F8001E417160CAB1B06040F6FF71B068884350
:1065080000F58050F060F0686FF30B0000F58050E4
:10651800306130696FF30B0000F58050706170696D
:106528006FF30B0000F5805004E00020B060F060CD
:1065380030617061B0618021706840F40040706023
:10654800706861F307007060009601F01DF94EF65F
:1065580070746846CEF2000420F01C00206001F040
:1065680013F901F014F9A8688660C16821F0FF01E9
:10657800C160019001F008F901A820F01C0020601A
:106588002030206001F000F901F001F995F91020A0
:106598004FF47F01D8F800004FF48033B2F1FF3F89
:1065A80002F01F02C8BFFF21C8BF012303FA02F28D
:1065B8001140C0F8B011D0F8B01159B1D0F8B011ED
:1065C80000291CBFD0F8B011002903D0D0F8B011B1
:1065D8000029F0D102B05DF8048BF0BDF0B503AF2F
:1065E8004DF804BD044690F834000D46D0B120683B
:1065F800002801BF206A4FF0FF312160D0F8481110
:1066080001BF21F0410165F3000165F38611C0F86F
:10661800481101BF2068013020605DF804BB08BF45
:10662800F0BD1FE001F0B6F8064601F0A9F82068B1
:10663800C0B9206A4FF0FF312160D0F8481121F02D
:10664800410165F3000165F38611C0F8481120681F
:1066580001302060F0070CD15DF804BBBDE8F040C4
:1066680001F090B840F68040C2F2200001F036F9FF
:10667800FEDE5DF804BBF0BDF0B503AF2DE9000FF9
:1066880081B006683168002940F0F580D0E9011929
:10669800B346D0E903854FF0FF304BF8040B087878
:1066A80098B34D78B268680040EAD511C8B2824202
:1066B80011D9F26901F00F011268BFF35F8F92B22E
:1066C80022FA01F1C90706D0B169814240F2CC80B3
:1066D80001200521C1E0F26A0120B9F80030042147
:1066E8009A4222BFB46AD21AA242C0F0B680F262BD
:1066F800294698F8000000905846FEF732FD002819
:1067080000F0C08000202946A7E02878B26840F051
:10671800010A4FEA4A0141EAD011C8B2824240F266
:106728008680F26901F00F011268BFF35F8F92B2A1
:1067380022FA01F1C9077AD0B169814240F2948006
:106748002878B26840F0020A4FEA4A0141EAD011BB
:10675800C8B282426BD9F26901F00F011268BFF327
:106768005F8F92B222FA01F1C90760D0B169814204
:106778007AD92878B26840F0030A4FEA4A0141EA18
:10678800D011C8B2824252D9F26901F00F011268E1
:10679800BFF35F8F92B222FA01F1C90747D0B169FE
:1067A800814261D92878B26840F0040A4FEA4A0168
:1067B80041EAD011C8B2824239D9F26901F00F0119
:1067C8001268BFF35F8F92B222FA01F1C9072ED087
:1067D800B169814248D92878B26840F0050A4FEA81
:1067E8004A0141EAD011C8B2824220D9F26901F0C7
:1067F8000F011268BFF35F8F92B222FA01F1C90745
:1068080015D0B16981422FD9287840F0060A584638
:106818005146FEF7B0FE50B1287840F0070A5846B6
:106828005146FEF7A8FE10B10120032115E0F26AD7
:106838000120B9F8003004219A4222BFB56AD21A61
:10684800AA420AD3F262514698F8000000905846CE
:10685800FEF787FCB0B10020514632680132326041
:1068680001B0BDE8000FF0BD40F6F812C2F22002F8
:1068780001F0B4F8FEDE40F68040C2F2200001F0DC
:106888002DF8FEDE40F6382040F63432C2F2200001
:10689800C2F220022B2101F08AF8FEDEB0B502AF69
:1068A800044690F8340058B1206800BB4FF0FF3020
:1068B8002060201DFFF71AFC206801302060B0BD61
:1068C80000F068FF054600F05BFF206878B94FF0DC
:1068D800FF302060201DFFF709FC20680130206090
:1068E800E80718BFB0BDBDE8B04000F04BBF40F6A8
:1068F8008040C2F2200000F0F1FFFEDEF0B503AFE9
:106908004DF804BD88B007F82A1CA7F12A010791A1
:10691800A7F127010691A7F12601059190F83410F7
:10692800D7E9025607F8292CA7F1290207F8283CCD
:1069380007F8275C27F8266CCDE9030221B103A8E4
:10694800FFF79AFE0C460FE000F024FF064600F021
:1069580017FF03A8FFF790FE0546F0070C4608BF8F
:1069680000F010FF05F0010000F00100214608B01A
:106978005DF804BBF0BDF0B503AF4DF804BD0446A7
:1069880090F834000D46A0B12068002801BF206AA5
:106998004FF0FF312160690601BF01F18071C0F835
:1069A80054112068013002BF20605DF804BBF0BDBF
:1069B8001AE000F0EFFE064600F0E2FE206898B903
:1069C800206A4FF0FF312160690601F18071C0F83B
:1069D8005411206801302060F0070CD15DF804BB29
:1069E800BDE8F04000F0CEBE40F68040C2F2200084
:1069F80000F074FFFEDE5DF804BBF0BDB0B502AF79
:106A0800044690F8340070B12068002801BF206A5D
:106A1800D0F840110022226002BF41F00101C0F805
:106A28004011B0BD16E000F0B5FE054600F0A8FE26
:106A3800206878B9206A0022D0F84011226041F01D
:106A48000101C0F84011E80718BFB0BDBDE8B0406B
:106A580000F098BE40F68040C2F2200000F03EFFF1
:106A6800FEDEB0B502AF044690F8340058B1206895
:106A780000BB4FF0FF302060201DFEF7B3FC2068FC
:106A880001302060B0BD00F085FE054600F078FEBC
:106A9800206878B94FF0FF302060201DFEF7A2FC77
:106AA800206801302060E80718BFB0BDBDE8B040DD
:106AB80000F068BE40F68040C2F2200000F00EFFF1
:106AC800FEDEF0B503AF2DE9000784B0054691F866
:106AD8003400D7F80880994616460C46B8B32068A3
:106AE800002840F095804FF0FF3071002060F0B230
:106AF80041EAD011A268C8B282421DD9E26901F008
:106B08000F011268BFF35F8F92B222FA01F1C90731
:106B180012D0A169814274D9211D700657D002A8EC
:106B28004A4643460096FFF7B3F89DF80800002848
:106B380056D09DF8090000E0052068700120216802
:106B48002870481C206004B0BDE80007F0BD00F0C4
:106B580021FE824600F014FE2068002858D14FF02C
:106B6800FF3071002060F0B241EAD011A268C8B2CB
:106B780082421CD9E26901F00F011268BFF35F8FEE
:106B880092B222FA01F1C90711D0A169814238D91C
:106B9800211D700628D002A84A4643460096FFF7F2
:106BA80077F89DF8080040B39DF8090000E005203B
:106BB8006870012021682870481C20605FEACA704C
:106BC800C1D100F0DFFD04B0BDE80007F0BD02A8A8
:106BD8004A464346FEF731FE9DF808000028A8D132
:106BE800039868600020AAE702A84A464346FEF7D1
:106BF80024FE9DF808000028D6D10398686000207C
:106C0800D8E740F6F812C2F2200200F0E7FEFEDEF6
:106C180040F68040C2F2200000F060FEFEDEF0B5D3
:106C280003AF2DE9000784B0054691F83400D7F882
:106C38000880994616460C46B8B32068002840F0EC
:106C480095804FF0FF3071002060F0B241EAD0111A
:106C5800A268C8B282421DD9E26901F00F01126828
:106C6800BFF35F8F92B222FA01F1C90712D0A1696E
:106C7800814274D9211D700657D002A84A4643465E
:106C88000096FEF723FF9DF80800002856D09DF8CF
:106C9800090000E005206870012021682870481C60
:106CA800206004B0BDE80007F0BD00F073FD824627
:106CB80000F066FD2068002858D14FF0FF307100C1
:106CC8002060F0B241EAD011A268C8B282421CD951
:106CD800E26901F00F011268BFF35F8F92B222FAE6
:106CE80001F1C90711D0A169814238D9211D700667
:106CF80028D002A84A4643460096FEF7E7FE9DF8CC
:106D0800080040B39DF8090000E0052068700120E4
:106D180021682870481C20605FEACA70C1D100F061
:106D280031FD04B0BDE80007F0BD02A84A4643465D
:106D3800FEF745FC9DF808000028A8D10398686074
:106D48000020AAE702A84A464346FEF738FC9DF809
:106D580008000028D6D1039868600020D8E740F6DC
:106D6800F812C2F2200200F039FEFEDE40F6804042
:106D7800C2F2200000F0B2FDFEDEF0B503AF4DF820
:106D8800048D044690F8340016460D4630B320684A
:106D980000285ED14FF0FF3069002060E8B241EA78
:106DA800D011A268C8B2824212D9E26901F00F017B
:106DB8001268BFF35F8F92B222FA01F1C90707D0B8
:106DC800A16981423ED9201D31462A46FFF74EF877
:106DD8002068013020605DF8048BF0BD00F0DAFC1B
:106DE800804600F0CDFC206898BB4FF0FF3069006A
:106DF8002060E8B241EAD011A268C8B2824212D932
:106E0800E26901F00F011268BFF35F8F92B222FAB4
:106E180001F1C90707D0A169814213D9201D314664
:106E28002A46FFF723F82068013020605FEAC8701F
:106E380005D15DF8048BBDE8F04000F0A3BC5DF817
:106E4800048BF0BD40F6F812C2F2200200F0C6FD35
:106E5800FEDE40F68040C2F2200000F03FFDFEDE7C
:106E6800F0B503AF4DF804BD044690F834000D4664
:106E780080B120686FF00041884227D2013020603D
:106E8800201D2946FFF7B2F82168013921605DF815
:106E980004BBF0BD00F07EFC064600F071FC2068E3
:106EA8006FF00041884211D201302060201D294630
:106EB800FFF79CF80546206801382060F00708BFF6
:106EC80000F060FC28465DF804BBF0BD40F6704059
:106ED800C2F2200000F01DFDFEDEF0B503AF4DF854
:106EE80004BD054691F834000C4670B120680028AE
:106EF80063D1206A4FF0FF312160D0F844114A066F
:106F080017D4C9071FD1002031E000F043FC064622
:106F180000F036FC206800284FD1206A4FF0FF317E
:106F28002160D0F844114A0608D4C90726D10020A8
:106F380038E04021C0F84411012018E04021C0F891
:106F4800441101202EE00121C0F84411D0F8BC11F1
:106F5800D0F8BC21C9B2C2F3074221861304C0F895
:106F6800BC31AA806980D0F8AC01E8800220216891
:106F78002880481C20605DF804BBF0BD0121C0F8E2
:106F88004411D0F8BC11D0F8BC21C9B2C2F30742F1
:106F980021861304C0F8BC31AA806980D0F8AC01FE
:106FA800E880022021682880481C2060F00708BF7C
:106FB80000F0E8FB5DF804BBF0BD40F68040C2F28B
:106FC800200000F08BFCFEDE082A16D10A784B78E8
:106FD800B1F802C04968C0F8021002F08001C1711E
:106FE800C2F34111417202F01F0183710429A0F814
:106FF80000C028BF04210172704704214172012199
:1070080001707047F0B503AF2DE90007D0E90546D8
:107018008146B01CA04216D8884606F580718C427D
:1070280038BF2146814233D3091A1D4699420AD3F3
:10703800D9F810A011462A46504401F024FBA81C98
:107048003118A14203D90220BDE80007F0BDA642CD
:1070580015D20AF80600701CA0423FBF0AF800804B
:10706800C9F818100820BDE8000738BFF0BD40F681
:107078001452C2F22002214600F0B0FCFEDE40F6B7
:1070880004523046C2F22002214600F0A7FCFEDE80
:1070980040F6F442C2F2200200F0E5FFFEDEF0B551
:1070A80003AF2DE9000F87B00D690A460C688E689A
:1070B800002D18BF0325002C18BF0124002E18BF6F
:1070C8000126D0E9051C0CF1020E8E4504D90220D8
:1070D80007B0BDE8000FF0BD0CF58073994238BFCA
:1070E8000B4673456CD3A3EB0E03102B04D202207E
:1070F80007B0BDE8000FF0BD92F821300693730089
:1071080002934FF4047692F820300393D37FB2F8B9
:1071180018B00493937FB2F81A904FEA1B2A928B07
:10712800D0F810800593130A01934FEA192328F821
:107138000E6008EB0E0600930123B272009A727279
:10714800069A7271039AF373029B3271049A7373ED
:10715800019BF270059AB5733473F37286F8089040
:1071680086F807A086F806B0B2700CF112068E42B7
:1071780004D9022007B0BDE8000FF0BD8C450FD23E
:107188000CF1010312228B4208F80C2010D20121C5
:107198008661082008F8031007B0BDE8000FF0BDAD
:1071A80040F604526046C2F2200200F017FCFEDEF0
:1071B80040F614521846C2F2200200F00FFCFEDE20
:1071C80040F6F4427046C2F22002194600F04BFF26
:1071D800FEDEF0B503AF4DF804BD91F8255001224D
:1071E80091F8233091F8226091F82440002BD0E9DF
:1071F800051C0CF1020E05770CF10405C0E9002509
:107208006FF03F0508BF6FF07F058E451BD80CF562
:107218008073994238BF0B46734539D3A3EB0E02EE
:10722800072A10D345EA441204694FF0807344F8E2
:107238000E3004EB0E035A7100221A710CF1090288
:107248008A429E7103D902205DF804BBF0BD8C45CB
:1072580016D2092304F80C300CF101038B423FBF0E
:107268000221E154826108203CBF5DF804BBF0BDF7
:1072780040F614521846C2F2200200F0AFFBFEDEC0
:1072880040F604526046C2F2200200F0A7FBFEDE80
:1072980040F6F4427046C2F22002194600F0E3FEBE
:1072A800FEDE4169032981BF016980694880704712
:1072B80080B56F4640F624520420C2F2200200F046
:1072C800B2FEFEDE80B56F4684B0D7F808E094467B
:1072D80000220292CDE9003E634600F002F804B0B5
:1072E80080BDF0B503AF2DE9000B8C46110601D027
:1072F800416909E00168C9B3456841698D4252D2C4
:107308000669745D01347455D0F818E04FF001082F
:10731800D7E904460EF10405002CC0E9028508BF30
:1073280026460EF102048C421CD80EF58075A9423F
:1073380038BF0D46A54246D32D1B072D12D305692C
:10734800D7E9029805F804C02C4462700EF10902CE
:10735800E37000238A42A67184F8058084F80490BB
:10736800A37007D90220BDE8000BF0BD0720BDE8D7
:10737800000BF0BD8E451ED2092305F80E300EF124
:1073880001038B423FBF0421E954826108203CBFBE
:10739800BDE8000BF0BD40F614521846C2F22002B8
:1073A80000F01CFBFEDE40F634522846C2F22002F2
:1073B80000F014FBFEDE40F604527046C2F22002D2
:1073C80000F00CFBFEDE40F6F4422046C2F220023A
:1073D800294600F048FEFEDEF0B503AF2DE9000FA8
:1073E80083B00B460546D0E90510861C8E4204D9A9
:1073F800022003B0BDE8000FF0BD884280F08D8008
:107408002C6900F1010E00268E45265480F08C80F0
:1074180003EB020B221802F1020C02950326002549
:107428004FF0000804F80E6001944419B8F1000FF9
:1074380004F1020E05D04FF000099A468E4537D365
:107448005BE05B455ED09A461AF9012BB2F1FF3F2B
:107458005FFA82F926DC5E7809F01F08B9F1DF0FC0
:1074680006F03F061AD99A78B9F1F00F02F03F02F8
:1074780042EA86162ED3DA7802F03F0242EA8612F2
:1074880008F0070642EA8649B9F5881F3AD003F1A1
:10749800040A0022B2EB194F04D023E046EA881907
:1074A80003F1020A1FFA89F84FF000098E4524D229
:1074B800231D1EF1030F3FD88B4246D82CF80580B8
:1074C8000235C84653464419B8F1000F04F1020EBC
:1074D800B1D1B6E746EA083903F1030A0022B2EB54
:1074E800194FDFD009F57F02372363F39F294FF443
:1074F800584343EA92288E45DAD3022003B0BDE808
:10750800000FF0BD019AA91C11540298C0F818E0A8
:10751800082003B0BDE8000FF0BD40F64452C2F2A7
:10752800200200F05BFAFEDE40F654527046C2F2CA
:10753800200200F053FAFEDE40F664527046C2F2B2
:107548002002194600F08FFDFEDE40F66452184610
:10755800C2F2200200F067FDFEDEB0B502AF82681D
:107568000123D2E9051C0CF104040CF1020E8E452E
:10757800C0E9003415D80CF58073994238BF0B4622
:10758800734539D3A3EB0E03032B0AD314690025E3
:1075980004EB0E0324F80E509D700CF105038B428A
:1075A80001D90220B0BD8C451ED2052504F80C5027
:1075B8000CF1010C8C453FBF0F2104F80C109361AE
:1075C80040F674523FBFC2F2200202210423BDE8F4
:1075D800B04038BF00F019B840F61452C2F2200289
:1075E800604600F0FBF9FEDE40F60452C2F22002CB
:1075F800604600F0F3F9FEDE40F6F4427046C2F24F
:107608002002194600F02FFDFEDEF0B503AF4DF85D
:1076180004BD0568D5B1D0E901067469A04242D21B
:10762800346903F1030EBEF1FF0F255C05F1010576
:1076380025549EBFD6E905C000EB0E0565454FF001
:10764800020408D920465DF804BBF0BD0724204693
:107658005DF804BBF0BD60452DD23569441C05F8C2
:1076680000E0D6F814C064452DD2D6F810C0102515
:107678000CF80450841CD6F814C064452CD2356923
:1076880003302955C41830D271698C4235D8316914
:10769800084411461A4600F0F6FFB4610824204653
:1076A8005DF804BBF0BD40F678522146C2F22002D4
:1076B80000F094F9FEDE40F68852C2F220026146DC
:1076C80000F08CF9FEDE40F698522046C2F2200205
:1076D800614600F083F9FEDE40F6A8522046C2F269
:1076E8002002614600F07AF9FEDE40F6B8522146E3
:1076F800C2F2200200F0B7FCFEDE40F6B852204687
:10770800C2F2200200F08FFCFEDE826800230360D4
:107718005169032981BF106991694180704780B51B
